:100000000C942A000C947F020C9447000C94470037
:100010000C9447000C9447000C9447000C94470044
:100020000C9447000C9447000C9447000C94470034
:100030000C9447000C9447000C9447000C94470024
:100040000C9447000C9447000C9447000C94470014
:100050000C94470011241FBECFE5D8E0DEBFCDBF12
:1000600011E0A0E6B0E0EAEAF0E102C005900D92EE
:10007000A43CB107D9F712E0A4ECB1E001C01D9295
:10008000A630B107E1F70E944B040C9453080C947E
:10009000000098B3282F207F9F70292B28BBC09881
:1000A000C19A22E0922F9A95F1F7C198E8ECF0E01E
:1000B0003197F1F798B38295807F9F70982B98BB0A
:1000C000C19A2A95F1F7C19880EA9FE00197F1F76C
:1000D000089598B3282F207F9F70292B28BBC09AA2
:1000E000C19A22E0922F9A95F1F7C198E8ECF0E0DE
:1000F0003197F1F798B38295807F9F70982B98BBCA
:10010000C19A2A95F1F7C19880EA9FE00197F1F72B
:1001100008958FEF87BB80ED97E028EC30E0F90180
:100120003197F1F70197D9F783E30E94490082E301
:100130000E94490088E20E9449008CE00E94490028
:1001400081E00E94490080EA9FE00197F1F782E890
:100150000E9449000895DF93CF9300D0CDB7DEB75A
:1001600090E8998390EC9A83FE01E60FF11D91814E
:10017000890F0E9449000F900F90CF91DF91089551
:100180001F93CF93DF93EC0110E003C00E9469003E
:100190001F5FFE01E10FF11D80818823B9F7DF9118
:1001A000CF911F91089581E00E94490080EA9FE06D
:1001B0000197F1F708959B01AC01DC01CB0180565A
:1001C0009940A040B040815A984BA140B04018F0EF
:1001D00027E630E018C060E472E48FE090E0621B34
:1001E000730B840B950BF3E0660F771F881F991F25
:1001F000FA95D1F7E3E0220F331F441F551FEA950C
:10020000D1F70E94DE0729B930BD08952AB12861CF
:100210002AB920B5266820BD0E94DB0008955F9BA7
:10022000FECF8CB108955D9BFECF8CB90895FC0183
:1002300004C05D9BFECF31968CB980818823C9F7BD
:100240000895DC0180E05F9BFECF9CB19D3011F0F2
:100250009A3021F4A80FB11D1C920895983021F412
:10026000882311F08150EFCFFD01E80FF11D90833D
:100270008F5FE9CF4F925F926F927F928F929F92A2
:10028000AF92BF92CF92DF92FF920F931F93DF93B3
:10029000CF93CDB7DEB72C970FB6F894DEBF0FBE65
:1002A000CDBF5A016B01122F823021F51EC05D9B1C
:1002B000FECF20E0812F90E00197BA0102C0660FC7
:1002C000771F8A95E2F7CB01AA2797FDA095BA2F51
:1002D0008A219B21AC21BD210097A105B10509F020
:1002E00021E0205D2CB9115002C041E050E0112303
:1002F000F1F654C0411551056105710551F000E05A
:100300002E010894411C511C682E772488249924BE
:1003100033C080E090E304C05D9BFECF9CB98F5F4B
:100320008117E0F58A30C1F739C0A114B104C104C6
:10033000D104D9F0FA2CC601B501A40193010E94A1
:10034000DE07C901DA015C016D01C201800F911D58
:100350009C878B87C601B501A40193010E94BF074A
:10036000F61AEB85FC85F08206C01B30A8F4F2017A
:10037000E00FF11D10820F5F0117B8F20DC0FE01F2
:10038000E00FF11DE081EA3010F0E95C01C0E05DB2
:100390005D9BFECFECB90150002389F72C960FB678
:1003A000F894DEBF0FBECDBFCF91DF911F910F91AB
:1003B000FF90DF90CF90BF90AF909F908F907F90F5
:1003C0006F905F904F900895AF92BF92CF92DF925F
:1003D000EF92FF920F931F935B016C010E94A206A4
:1003E0007B018C018AE0B801A7012FEF0E943A013E
:1003F0005D9BFECF8EE28CB9C801B7010E94CE068C
:100400009B01AC01C601B5010E943D0620E034E22B
:1004100044E759E40E945C070E94A206AB01BC01BC
:100420008AE02FEF0E943A011F910F91FF90EF9009
:10043000DF90CF90BF90AF900895D69ADE9880E479
:100440009CE90197F1F7DE9A0895D698CE99FECFF0
:10045000CE9BFECFCE99FECF08958091C60120E0BD
:1004600030E040E5CE9BFECF942F9A95F1F7CE9BDE
:1004700003C0880F816001C0880FCE99FECF2F5F27
:100480003F4F2830310571F78093C6010895829956
:100490001EC0AE9AAD980E94D30084E060E00E9436
:1004A000AB0080E690E00E94C00082E061E00E9424
:1004B000AB0088E690E00E94C00080E197E228EC63
:1004C00030E0F9013197F1F70197D9F715C0AD9AEE
:1004D000AE980E94D30081E061E00E94AB0085E706
:1004E00090E00E94C00080E197E228EC30E0F90142
:1004F0003197F1F70197D9F780E090E008951F92C6
:100500000F920FB60F9211242F933F934F935F9347
:100510006F937F938F939F93AF93BF93EF93FF93CB
:100520000E944702FF91EF91BF91AF919F918F91F0
:100530007F916F915F914F913F912F910F900FBEDF
:100540000F901F9018959B01AC018AB188698AB9F8
:1005500080B5866880BD63E0220F331F441F551F9E
:100560006A95D1F760E072E18AE790E00E94DE07C9
:10057000C901DA01215029B90197A109B109892FCF
:100580009A2FAB2FBB2780BD08955F9BFECF8CB108
:1005900008958CB95D9BFECF0895FC0104C08CB911
:1005A0005D9BFECF319680818823C9F708956F92B5
:1005B0007F928F929F92AF92BF92CF92DF92EF92F3
:1005C000FF920F931F93DF93CF93CDB7DEB72F9793
:1005D0000FB6F894DEBF0FBECDBF4C015B016A01C0
:1005E00084E890E00E94CD028E010C5F1F4F84EDE5
:1005F00091E00E9421018093C4011092C501809175
:100600001E0190911F01A0912001B09121018C83C6
:100610009D83AE83BF83C80164ED71E042E050E08A
:100620000E940008009719F780EB90E00E94CD022D
:100630008E010F5F1F4F84ED91E00E942101809396
:10064000C4011092C501D801E2E2F1E083E001901B
:100650000D928150E1F7C80164ED71E042E050E095
:100660000E940008009739F700E010E0E8E0EE2E65
:10067000F12CEC0EFD1E78EC672E712C80EC90E0D6
:100680000E94CD028FEE90E00E94CD0280E091E0CA
:100690000E94CD02C4010E94CD0289E091E00E9437
:1006A000CD02C5010E94CD0282E191E00E94CD02FF
:1006B000C6010E94CD028BE191E00E94CD0284ED43
:1006C00091E00E9421018093C4011092C501D701DD
:1006D000E5E2F1E088E001900D928150E1F7C70179
:1006E00064ED71E047E050E00E940008009769F077
:1006F00080E29EE4F3013197F1F70197D9F70F5F9C
:100700001F4F0330110509F0B9CF2F960FB6F8949B
:10071000DEBF0FBECDBFCF91DF911F910F91FF9034
:10072000EF90DF90CF90BF90AF909F908F907F9091
:100730006F9008950F931F93DF93CF9300D000D055
:10074000CDB7DEB78DE291E00E94CD028E010F5F42
:100750001F4F84ED91E00E9421018093C40110920B
:10076000C50180911E0190911F01A0912001B091BF
:10077000210189839A83AB83BC83C80164ED71E056
:1007800042E050E00E940008009719F782E391E0F0
:100790000E94CD028DE391E00E94CD0280E591E0C0
:1007A0000E94CD0284E591E00E94CD028EE591E0A9
:1007B0000E94CD028E010F5F1F4F84ED91E00E94D9
:1007C00021018093C4011092C50180911E01909176
:1007D0001F01A0912001B091210189839A83AB83ED
:1007E000BC83C80164ED71E042E050E00E94000863
:1007F000009719F782E691E00E94CD028E010F5F0B
:100800001F4F84ED91E00E9421018093C40110925A
:10081000C50180911E0190911F01A0912001B0910E
:10082000210189839A83AB83BC83C80164ED71E0A5
:1008300042E050E00E940008009719F780E791E03D
:100840000E94CD028E010F5F1F4F84ED91E00E9448
:1008500021018093C4011092C50180911E019091E5
:100860001F01A0912001B091210189839A83AB835C
:10087000BC83C80164ED71E042E050E00E940008D2
:10088000009719F70F900F900F900F90CF91DF9175
:100890001F910F9108950E9489000E94D30080E06B
:1008A00060E00E94AB008EE791E00E94C00083E010
:1008B00061E00E94AB008FE891E00E94C00080E1FF
:1008C00097E228EC30E0F9013197F1F70197D9F779
:1008D0000E94D30080E060E00E94AB008AE991E0D2
:1008E0000E94C00080E061E00E94AB0086EA91E0D7
:1008F0000E94C0008FEF84BB8E9880E48BBF81E0A4
:1009000085BF78941BB888E18AB986E880BD88EEF7
:1009100093E028EC30E0F9013197F1F70197D9F72E
:100920000E94470260E07BE480E090E00E94A30226
:100930000E949A038EEA91E061EB71E044EB51E092
:100940000E94D702F5CF0E941D020E9425020E943C
:100950002D028093D2010E942D028093CE010E942D
:100960002D028093D1010E942D028093D3010E9419
:100970002D028093CF012091D201622F70E020914F
:10098000CE01AB01420F511D9A014091D101240FBC
:10099000311D4091D301240F311D90E028173907F4
:1009A00039F080E060E00E94AB0086EB91E04BC044
:1009B000CB0169EC71E04AE050E00E940E088BE048
:1009C00060E00E94AB0089EC91E00E94C0008CEBDB
:1009D00091E00E94C0008091CE0190E069EC71E04E
:1009E0004AE050E00E940E0889EC91E00E94C000AD
:1009F0008EEB91E00E94C0008091D10190E069EC03
:100A000071E04AE050E00E940E0886E061E00E943A
:100A1000AB0089EC91E00E94C0008CEB91E00E9459
:100A2000C0008091D30190E069EC71E04AE050E0B1
:100A30000E940E0889EC91E00E94C0008FED0E9498
:100A4000690080EC91E00E94C00008959F92AF92EF
:100A5000BF92CF92DF92EF92FF920F931F93DF939B
:100A6000CF93CDB7DEB710E1E12EF12CEC0EFD1ED9
:100A70008E859F859C016901BAE09B2EADE2BA2E5E
:100A8000F5E2AF2EE9C0853209F0E0C00894C11C40
:100A9000D11CF6019081892F80538A3010F02FEFFE
:100AA0000FC020E009C0299D202D1124280F089493
:100AB000C11CD11CF6019081892F80538A3098F394
:100AC000983509F481C09935C0F4943409F449C0CB
:100AD000953448F4923409F490C0933420F595325B
:100AE00009F0B7C0AFC0933509F4A2C0953509F439
:100AF00058C0963409F0ADC090C0963609F48DC048
:100B0000973640F4933679F09436B1F0923609F086
:100B1000A0C066C09537E1F1983709F44CC093370F
:100B200009F097C085C0F70180815D9BFECF22E070
:100B300030E0E20EF31E8CC0F7018081918197FFB7
:100B400006C05D9BFECF909581959F4FBCB842E05B
:100B500050E0E40EF51EAC01662757FD6095762F38
:100B600015C0F701408151816281738177FF0AC00E
:100B70005D9BFECF70956095509541955F4F6F4F8F
:100B80007F4FBCB884E090E0E80EF91E8AE042C0D6
:100B900087010E5F1F4FF7014081518160E070E0D7
:100BA00008C087010C5F1F4FF701408151816281AE
:100BB00073818AE012C087010E5F1F4FF7014081E9
:100BC000518160E070E008C087010C5F1F4FF701A2
:100BD000408151816281738180E10E943A0130C07D
:100BE000F701408151812F3F09F420E182E090E03C
:100BF000E80EF91E60E070E00CC0F7014081518101
:100C0000628173812F3F09F420E284E090E0E80ED6
:100C1000F91E82E00E943A011CC087010C5F1F4F41
:100C2000F70160817181828193810E94E40108C093
:100C300087010E5F1F4FF701808191810E9417018C
:100C4000780107C05D9BFECFACB803C05D9BFECFB3
:100C50008CB90894C11CD11CF6018081882309F04D
:100C600012CFCF91DF911F910F91FF90EF90DF9006
:100C7000CF90BF90AF909F9008955058BB27AA2760
:100C80000ED0E0C0D1D030F0D6D020F031F49F3F6C
:100C900011F41EF4C6C00EF4E095E7FBBCC0E92FCA
:100CA000E2D080F3BA17620773078407950718F03C
:100CB00071F49EF5FAC00EF4E0950B2EBA2FA02D1C
:100CC0000B01B90190010C01CA01A0011124FF27F9
:100CD000591B99F0593F50F4503E68F11A16F040F4
:100CE000A22F232F342F4427585FF3CF46953795F3
:100CF0002795A795F0405395C9F77EF41F16BA0BB8
:100D0000620B730B840BBAF09150A1F0FF0FBB1F65
:100D1000661F771F881FC2F70EC0BA0F621F731FAE
:100D2000841F48F4879577956795B795F7959E3F0B
:100D300008F0B3CF9395880F08F09927EE0F979599
:100D40008795089598D088F09F5790F0B92F9927EC
:100D5000B751A0F0D1F0660F771F881F991F1AF0C6
:100D6000BA95C9F712C0B13081F09FD0B1E00895B3
:100D70009CC0672F782F8827B85F39F0B93FCCF334
:100D8000869577956795B395D9F73EF490958095BC
:100D9000709561957F4F8F4F9F4F0895E89409C0DC
:100DA00097FB3EF490958095709561957F4F8F4F9E
:100DB0009F4F9923A9F0F92F96E9BB279395F695B4
:100DC000879577956795B795F111F8CFFAF4BB0F32
:100DD00011F460FF1BC06F5F7F4F8F4F9F4F16C096
:100DE000882311F096E911C0772321F09EE8872F20
:100DF000762F05C0662371F096E8862F70E060E0DC
:100E00002AF09A95660F771F881FDAF7880F969554
:100E1000879597F9089597F99F6780E870E060E0FB
:100E200008959FEF80EC089500240A941616170683
:100E300018060906089500240A94121613061406CB
:100E400005060895092E0394000C11F4882352F02E
:100E5000BB0F40F4BF2B11F460FF04C06F5F7F4FE6
:100E60008F4F9F4F089557FD9058440F551F59F0CD
:100E70005F3F71F04795880F97FB991F61F09F3F87
:100E800079F087950895121613061406551FF2CFB0
:100E90004695F1DF08C0161617061806991FF1CF00
:100EA00086957105610508940895E894BB27662727
:100EB0007727CB0197F908950BD0C4CFB5DF28F081
:100EC000BADF18F0952309F0A6CFABCF1124EECFEF
:100ED000CADFA0F3959FD1F3950F50E0551F629F95
:100EE000F001729FBB27F00DB11D639FAA27F00D83
:100EF000B11DAA1F649F6627B00DA11D661F829FAA
:100F00002227B00DA11D621F739FB00DA11D621F8E
:100F1000839FA00D611D221F749F3327A00D611DAB
:100F2000231F849F600D211D822F762F6A2F11248D
:100F30009F5750408AF0E1F088234AF0EE0FFF1FE0
:100F4000BB1F661F771F881F91505040A9F79E3F17
:100F5000510570F060CFAACF5F3FECF3983EDCF311
:100F6000869577956795B795F795E7959F5FC1F754
:100F7000FE2B880F911D9695879597F90895629F8E
:100F8000D001739FF001829FE00DF11D649FE00D81
:100F9000F11D929FF00D839FF00D749FF00D659FE2
:100FA000F00D9927729FB00DE11DF91F639FB00DE1
:100FB000E11DF91FBD01CF0111240895A1E21A2EF0
:100FC000AA1BBB1BFD010DC0AA1FBB1FEE1FFF1FED
:100FD000A217B307E407F50720F0A21BB30BE40B3D
:100FE000F50B661F771F881F991F1A9469F7609584
:100FF0007095809590959B01AC01BD01CF0108953E
:10100000FB01DC014150504030F08D91019080197E
:1010100019F40020B9F7881B990B0895FB019F0173
:10102000E8944230C4F04532B4F44A3029F497FBD6
:101030001EF4909581959F4F642F77270E943F085B
:10104000805D8A330CF0895D8193CB010097A1F715
:1010500016F45DE251931082C9010C942F08DC0153
:10106000FC01672F71917723E1F7329704C07C91DF
:101070006D9370836291AE17BF07C8F30895AA1BE2
:10108000BB1B51E107C0AA1FBB1FA617B70710F073
:10109000A61BB70B881F991F5A95A9F780959095A5
:0A10A000BC01CD010895F894FFCFC4
:1010AA005761726E696E6700446F6F7220697320B0
:1010BA004F70656E00446F6F7220697320436C6FC6
:1010CA007365640041542B43495053544152543D73
:1010DA0022544350222C226170692E7468696E670B
:1010EA00737065616B2E636F6D222C38300D0A00A8
:1010FA0041542B43495053454E443D39350D0A005E
:10110A004745542068747470733A2F2F6170692EA2
:10111A007468696E67737065616B2E636F6D2F7586
:10112A0070646174653F6170695F6B65793D0050F9
:10113A00305942475844553836475054455335007C
:10114A00266669656C64313D00266669656C6432A1
:10115A003D00266669656C64333D000D0A004F4BFD
:10116A0000004F4B0053454E44204F4B0041540D55
:10117A000A0041542B43574A41503D2200485541E9
:10118A005745495F59375F50726F5F3230313800C7
:10119A00222C220031323334353637383900220DC9
:1011AA000A0041542B43574D4F44453D330D0A0025
:1011BA0041542B4349504D55583D300D0A00524F6A
:1011CA004F4D2054454D50455241545552450043C8
:1011DA004F4E54524F4C4C45520048756D696469E4
:1011EA007479203D200054656D70203D2000333510
:1011FA000039300031004572726F72002E002500EE
:04120A00432000007D
:00000001FF
